{
  "contractName": "SimpleBank",
  "abi": [
    {
      "anonymous": false,
      "inputs": [
        {
          "indexed": true,
          "internalType": "address",
          "name": "account",
          "type": "address"
        },
        {
          "indexed": false,
          "internalType": "uint256",
          "name": "amount",
          "type": "uint256"
        }
      ],
      "name": "Borrow",
      "type": "event"
    },
    {
      "anonymous": false,
      "inputs": [
        {
          "indexed": true,
          "internalType": "address",
          "name": "account",
          "type": "address"
        },
        {
          "indexed": false,
          "internalType": "uint256",
          "name": "amount",
          "type": "uint256"
        }
      ],
      "name": "Deposit",
      "type": "event"
    },
    {
      "anonymous": false,
      "inputs": [
        {
          "indexed": true,
          "internalType": "address",
          "name": "account",
          "type": "address"
        },
        {
          "indexed": false,
          "internalType": "uint256",
          "name": "amount",
          "type": "uint256"
        }
      ],
      "name": "Repay",
      "type": "event"
    },
    {
      "anonymous": false,
      "inputs": [
        {
          "indexed": true,
          "internalType": "address",
          "name": "from",
          "type": "address"
        },
        {
          "indexed": true,
          "internalType": "address",
          "name": "to",
          "type": "address"
        },
        {
          "indexed": false,
          "internalType": "uint256",
          "name": "amount",
          "type": "uint256"
        }
      ],
      "name": "Transfer",
      "type": "event"
    },
    {
      "anonymous": false,
      "inputs": [
        {
          "indexed": true,
          "internalType": "address",
          "name": "account",
          "type": "address"
        },
        {
          "indexed": false,
          "internalType": "uint256",
          "name": "amount",
          "type": "uint256"
        }
      ],
      "name": "Withdraw",
      "type": "event"
    },
    {
      "inputs": [],
      "name": "deposit",
      "outputs": [],
      "stateMutability": "payable",
      "type": "function",
      "payable": true
    },
    {
      "inputs": [
        {
          "internalType": "uint256",
          "name": "amount",
          "type": "uint256"
        }
      ],
      "name": "withdraw",
      "outputs": [],
      "stateMutability": "nonpayable",
      "type": "function"
    },
    {
      "inputs": [],
      "name": "getBalance",
      "outputs": [
        {
          "internalType": "uint256",
          "name": "",
          "type": "uint256"
        }
      ],
      "stateMutability": "view",
      "type": "function",
      "constant": true
    },
    {
      "inputs": [
        {
          "internalType": "uint256",
          "name": "amount",
          "type": "uint256"
        }
      ],
      "name": "borrow",
      "outputs": [],
      "stateMutability": "nonpayable",
      "type": "function"
    },
    {
      "inputs": [
        {
          "internalType": "uint256",
          "name": "amount",
          "type": "uint256"
        }
      ],
      "name": "repay",
      "outputs": [],
      "stateMutability": "nonpayable",
      "type": "function"
    },
    {
      "inputs": [
        {
          "internalType": "address",
          "name": "to",
          "type": "address"
        },
        {
          "internalType": "uint256",
          "name": "amount",
          "type": "uint256"
        }
      ],
      "name": "transfer",
      "outputs": [],
      "stateMutability": "nonpayable",
      "type": "function"
    },
    {
      "inputs": [],
      "name": "getLoanBalance",
      "outputs": [
        {
          "internalType": "uint256",
          "name": "",
          "type": "uint256"
        }
      ],
      "stateMutability": "view",
      "type": "function",
      "constant": true
    }
  ],
  "bytecode": "0x608060405234801561001057600080fd5b50610cd8806100206000396000f3fe6080604052600436106100705760003560e01c80637aa326131161004e5780637aa32613146100f2578063a9059cbb1461011d578063c5ebeaec14610146578063d0e30db01461016f57610070565b806312065fe0146100755780632e1a7d4d146100a0578063371fd8e6146100c9575b600080fd5b34801561008157600080fd5b5061008a610179565b6040516100979190610af3565b60405180910390f35b3480156100ac57600080fd5b506100c760048036038101906100c2919061099b565b6101bf565b005b3480156100d557600080fd5b506100f060048036038101906100eb919061099b565b61032d565b005b3480156100fe57600080fd5b5061010761052c565b6040516101149190610af3565b60405180910390f35b34801561012957600080fd5b50610144600480360381019061013f919061095f565b610573565b005b34801561015257600080fd5b5061016d6004803603810190610168919061099b565b610707565b005b610177610890565b005b60008060003373ffffffffffffffffffffffffffffffffffffffff1673ffffffffffffffffffffffffffffffffffffffff16815260200190815260200160002054905090565b806000803373ffffffffffffffffffffffffffffffffffffffff1673ffffffffffffffffffffffffffffffffffffffff168152602001908152602001600020541015610240576040517f08c379a000000000000000000000000000000000000000000000000000000000815260040161023790610ab3565b60405180910390fd5b806000803373ffffffffffffffffffffffffffffffffffffffff1673ffffffffffffffffffffffffffffffffffffffff168152602001908152602001600020600082825461028e9190610ba6565b925050819055503373ffffffffffffffffffffffffffffffffffffffff166108fc829081150290604051600060405180830381858888f193505050501580156102db573d6000803e3d6000fd5b503373ffffffffffffffffffffffffffffffffffffffff167f884edad9ce6fa2440d8a54cc123490eb96d2768479d49ff9c7366125a9424364826040516103229190610af3565b60405180910390a250565b80600160003373ffffffffffffffffffffffffffffffffffffffff1673ffffffffffffffffffffffffffffffffffffffff1681526020019081526020016000205410156103af576040517f08c379a00000000000000000000000000000000000000000000000000000000081526004016103a690610a93565b60405180910390fd5b806000803373ffffffffffffffffffffffffffffffffffffffff1673ffffffffffffffffffffffffffffffffffffffff168152602001908152602001600020541015610430576040517f08c379a000000000000000000000000000000000000000000000000000000000815260040161042790610ab3565b60405180910390fd5b80600160003373ffffffffffffffffffffffffffffffffffffffff1673ffffffffffffffffffffffffffffffffffffffff168152602001908152602001600020600082825461047f9190610ba6565b92505081905550806000803373ffffffffffffffffffffffffffffffffffffffff1673ffffffffffffffffffffffffffffffffffffffff16815260200190815260200160002060008282546104d49190610ba6565b925050819055503373ffffffffffffffffffffffffffffffffffffffff167f5c16de4f8b59bd9caf0f49a545f25819a895ed223294290b408242e72a594231826040516105219190610af3565b60405180910390a250565b6000600160003373ffffffffffffffffffffffffffffffffffffffff1673ffffffffffffffffffffffffffffffffffffffff16815260200190815260200160002054905090565b806000803373ffffffffffffffffffffffffffffffffffffffff1673ffffffffffffffffffffffffffffffffffffffff1681526020019081526020016000205410156105f4576040517f08c379a00000000000000000000000000000000000000000000000000000000081526004016105eb90610ab3565b60405180910390fd5b806000803373ffffffffffffffffffffffffffffffffffffffff1673ffffffffffffffffffffffffffffffffffffffff16815260200190815260200160002060008282546106429190610ba6565b92505081905550806000808473ffffffffffffffffffffffffffffffffffffffff1673ffffffffffffffffffffffffffffffffffffffff16815260200190815260200160002060008282546106979190610b1f565b925050819055508173ffffffffffffffffffffffffffffffffffffffff163373ffffffffffffffffffffffffffffffffffffffff167fddf252ad1be2c89b69c2b068fc378daa952ba7f163c4a11628f55a4df523b3ef836040516106fb9190610af3565b60405180910390a35050565b6002816107149190610b75565b6000803373ffffffffffffffffffffffffffffffffffffffff1673ffffffffffffffffffffffffffffffffffffffff168152602001908152602001600020541015610794576040517f08c379a000000000000000000000000000000000000000000000000000000000815260040161078b90610ad3565b60405180910390fd5b80600160003373ffffffffffffffffffffffffffffffffffffffff1673ffffffffffffffffffffffffffffffffffffffff16815260200190815260200160002060008282546107e39190610b1f565b92505081905550806000803373ffffffffffffffffffffffffffffffffffffffff1673ffffffffffffffffffffffffffffffffffffffff16815260200190815260200160002060008282546108389190610b1f565b925050819055503373ffffffffffffffffffffffffffffffffffffffff167fcbc04eca7e9da35cb1393a6135a199ca52e450d5e9251cbd99f7847d33a36750826040516108859190610af3565b60405180910390a250565b346000803373ffffffffffffffffffffffffffffffffffffffff1673ffffffffffffffffffffffffffffffffffffffff16815260200190815260200160002060008282546108de9190610b1f565b925050819055503373ffffffffffffffffffffffffffffffffffffffff167fe1fffcc4923d04b559f4d29a8bfc6cda04eb5b0d3c460751c2402c5c5cc9109c3460405161092b9190610af3565b60405180910390a2565b60008135905061094481610c74565b92915050565b60008135905061095981610c8b565b92915050565b6000806040838503121561097257600080fd5b600061098085828601610935565b92505060206109918582860161094a565b9150509250929050565b6000602082840312156109ad57600080fd5b60006109bb8482850161094a565b91505092915050565b60006109d1601483610b0e565b91507f4c6f616e20616d6f756e742065786365656465640000000000000000000000006000830152602082019050919050565b6000610a11601483610b0e565b91507f496e73756666696369656e742062616c616e63650000000000000000000000006000830152602082019050919050565b6000610a51601383610b0e565b91507f436f6c6c61746572616c207265717569726564000000000000000000000000006000830152602082019050919050565b610a8d81610c0c565b82525050565b60006020820190508181036000830152610aac816109c4565b9050919050565b60006020820190508181036000830152610acc81610a04565b9050919050565b60006020820190508181036000830152610aec81610a44565b9050919050565b6000602082019050610b086000830184610a84565b92915050565b600082825260208201905092915050565b6000610b2a82610c0c565b9150610b3583610c0c565b9250827fffffffffffffffffffffffffffffffffffffffffffffffffffffffffffffffff03821115610b6a57610b69610c16565b5b828201905092915050565b6000610b8082610c0c565b9150610b8b83610c0c565b925082610b9b57610b9a610c45565b5b828204905092915050565b6000610bb182610c0c565b9150610bbc83610c0c565b925082821015610bcf57610bce610c16565b5b828203905092915050565b6000610be582610bec565b9050919050565b600073ffffffffffffffffffffffffffffffffffffffff82169050919050565b6000819050919050565b7f4e487b7100000000000000000000000000000000000000000000000000000000600052601160045260246000fd5b7f4e487b7100000000000000000000000000000000000000000000000000000000600052601260045260246000fd5b610c7d81610bda565b8114610c8857600080fd5b50565b610c9481610c0c565b8114610c9f57600080fd5b5056fea2646970667358221220e1e7ced768b9efb95a08181dff7124c160730ae841fdb0dc8745cf0fd988084b64736f6c63430008000033",
  "immutableReferences": {},
  "source": "// SPDX-License-Identifier: MIT\r\npragma solidity ^0.8.0;\r\n\r\ncontract SimpleBank {\r\n    mapping(address => uint256) private balances;\r\n    mapping(address => uint256) private loans;\r\n\r\n    event Deposit(address indexed account, uint256 amount);\r\n    event Withdraw(address indexed account, uint256 amount);\r\n    event Borrow(address indexed account, uint256 amount);\r\n    event Repay(address indexed account, uint256 amount);\r\n    event Transfer(address indexed from, address indexed to, uint256 amount);\r\n\r\n    function deposit() public payable {\r\n        balances[msg.sender] += msg.value;\r\n        emit Deposit(msg.sender, msg.value);\r\n    }\r\n\r\n    function withdraw(uint256 amount) public {\r\n        require(balances[msg.sender] >= amount, \"Insufficient balance\");\r\n        balances[msg.sender] -= amount;\r\n        payable(msg.sender).transfer(amount);\r\n        emit Withdraw(msg.sender, amount);\r\n    }\r\n\r\n    function getBalance() public view returns (uint256) {\r\n        return balances[msg.sender];\r\n    }\r\n\r\n    function borrow(uint256 amount) public {\r\n        require(balances[msg.sender] >= amount / 2, \"Collateral required\");\r\n        loans[msg.sender] += amount;\r\n        balances[msg.sender] += amount;\r\n        emit Borrow(msg.sender, amount);\r\n    }\r\n\r\n    function repay(uint256 amount) public {\r\n        require(loans[msg.sender] >= amount, \"Loan amount exceeded\");\r\n        require(balances[msg.sender] >= amount, \"Insufficient balance\");\r\n        loans[msg.sender] -= amount;\r\n        balances[msg.sender] -= amount;\r\n        emit Repay(msg.sender, amount);\r\n    }\r\n\r\n    function transfer(address to, uint256 amount) public {\r\n        require(balances[msg.sender] >= amount, \"Insufficient balance\");\r\n        balances[msg.sender] -= amount;\r\n        balances[to] += amount;\r\n        emit Transfer(msg.sender, to, amount);\r\n    }\r\n\r\n    function getLoanBalance() public view returns (uint256) {\r\n        return loans[msg.sender];\r\n    }\r\n}\r\n",
  "sourcePath": "C:\\Users\\gowda\\desktop\\SimpleBank\\contracts\\SimpleBank.sol",
  "compiler": {
    "name": "solc",
    "version": "0.8.0+commit.c7dfd78e.Emscripten.clang"
  },
  "schemaVersion": "3.4.16",
  "updatedAt": "2024-06-09T10:35:10.272Z",
  "networkType": "ethereum",
  "devdoc": {
    "kind": "dev",
    "methods": {},
    "version": 1
  },
  "userdoc": {
    "kind": "user",
    "methods": {},
    "version": 1
  }
}